:100000000C942A000C9434000C9434000C943400AA
:100010000C9434000C9434000C9434000C94340090
:100020000C9434000C9434000C9434000C94340080
:100030000C9434000C9434000C9434000C94340070
:100040000C9434000C9434000C9434000C94340060
:100050000C94340011241FBECFE5D8E0DEBFCDBF25
:100060000E9436000C9446000C94000081E08ABB8C
:1000700017BA88BB8FE097E20197F1F700C0000044
:10008000B09902C0D89AF6CFD898F4CFF894FFCFA1
:00000001FF
